{
  "transactions": [
    {
      "hash": null,
      "transactionType": "CALL",
      "contractName": null,
      "contractAddress": "0x998679089cdc7a9a116937c720517c95db6dba75",
      "function": "execTransaction(address,uint256,bytes,uint8,uint256,uint256,uint256,address,address,bytes)",
      "arguments": [
        "0x998679089cDc7A9a116937C720517C95dB6DBA75",
        "0",
        "0x0d582f13000000000000000000000000c50d366ea5939d15504033d42a57278497d73e5f0000000000000000000000000000000000000000000000000000000000000001",
        "0",
        "0",
        "0",
        "0",
        "0x0000000000000000000000000000000000000000",
        "0x0000000000000000000000000000000000000000",
        "0x018fe619c352a9339bba757503435dfe3942cebe10d005ea89c90eb987238e497a292d805d5e43c06f3316ca5a246d75e46fb66fd0f63527a756e3785f5277031b"
      ],
      "transaction": {
        "from": "0x8717cd5a7250aed3473f92e97d933d2972c747fd",
        "to": "0x998679089cdc7a9a116937c720517c95db6dba75",
        "gas": "0x21623",
        "value": "0x0",
        "input": "0x6a761202000000000000000000000000998679089cdc7a9a116937c720517c95db6dba750000000000000000000000000000000000000000000000000000000000000000000000000000000000000000000000000000000000000000000000000000014000000000000000000000000000000000000000000000000000000000000000000000000000000000000000000000000000000000000000000000000000000000000000000000000000000000000000000000000000000000000000000000000000000000000000000000000000000000000000000000000000000000000000000000000000000000000000000000000000000000000000000000000000000000000000000000000000000000000000000000000000000000000000000000000000000000000000000000000000000000000000000000000000000000000001c000000000000000000000000000000000000000000000000000000000000000440d582f13000000000000000000000000c50d366ea5939d15504033d42a57278497d73e5f0000000000000000000000000000000000000000000000000000000000000001000000000000000000000000000000000000000000000000000000000000000000000000000000000000000000000000000000000000000000000041018fe619c352a9339bba757503435dfe3942cebe10d005ea89c90eb987238e497a292d805d5e43c06f3316ca5a246d75e46fb66fd0f63527a756e3785f5277031b00000000000000000000000000000000000000000000000000000000000000",
        "nonce": "0x8",
        "chainId": "0x89"
      },
      "additionalContracts": [],
      "isFixedGasLimit": false
    }
  ],
  "receipts": [],
  "libraries": [],
  "pending": [],
  "returns": {},
  "timestamp": 1774358042319,
  "chain": 137,
  "commit": null
}