{
  "transactions": [
    {
      "hash": "0xa54adb23949af8f2048f2a64469ed983e5e6abde0d8fba33f4cb1de5c88defc1",
      "transactionType": "CALL",
      "contractName": null,
      "contractAddress": "0x998679089cdc7a9a116937c720517c95db6dba75",
      "function": "execTransaction(address,uint256,bytes,uint8,uint256,uint256,uint256,address,address,bytes)",
      "arguments": [
        "0x998679089cDc7A9a116937C720517C95dB6DBA75",
        "0",
        "0x0d582f13000000000000000000000000c50d366ea5939d15504033d42a57278497d73e5f0000000000000000000000000000000000000000000000000000000000000001",
        "0",
        "0",
        "0",
        "0",
        "0x0000000000000000000000000000000000000000",
        "0x0000000000000000000000000000000000000000",
        "0x018fe619c352a9339bba757503435dfe3942cebe10d005ea89c90eb987238e497a292d805d5e43c06f3316ca5a246d75e46fb66fd0f63527a756e3785f5277031b"
      ],
      "transaction": {
        "from": "0x8717cd5a7250aed3473f92e97d933d2972c747fd",
        "to": "0x998679089cdc7a9a116937c720517c95db6dba75",
        "gas": "0x21623",
        "value": "0x0",
        "input": "0x6a761202000000000000000000000000998679089cdc7a9a116937c720517c95db6dba750000000000000000000000000000000000000000000000000000000000000000000000000000000000000000000000000000000000000000000000000000014000000000000000000000000000000000000000000000000000000000000000000000000000000000000000000000000000000000000000000000000000000000000000000000000000000000000000000000000000000000000000000000000000000000000000000000000000000000000000000000000000000000000000000000000000000000000000000000000000000000000000000000000000000000000000000000000000000000000000000000000000000000000000000000000000000000000000000000000000000000000000000000000000000000000001c000000000000000000000000000000000000000000000000000000000000000440d582f13000000000000000000000000c50d366ea5939d15504033d42a57278497d73e5f0000000000000000000000000000000000000000000000000000000000000001000000000000000000000000000000000000000000000000000000000000000000000000000000000000000000000000000000000000000000000041018fe619c352a9339bba757503435dfe3942cebe10d005ea89c90eb987238e497a292d805d5e43c06f3316ca5a246d75e46fb66fd0f63527a756e3785f5277031b00000000000000000000000000000000000000000000000000000000000000",
        "nonce": "0xa",
        "chainId": "0x89"
      },
      "additionalContracts": [],
      "isFixedGasLimit": false
    }
  ],
  "receipts": [
    {
      "status": "0x1",
      "cumulativeGasUsed": "0x60c4727",
      "logs": [
        {
          "address": "0x998679089cdc7a9a116937c720517c95db6dba75",
          "topics": [
            "0x66753cd2356569ee081232e3be8909b950e0a76c1f8460c3a5e3c2be32b11bed"
          ],
          "data": "0x000000000000000000000000998679089cdc7a9a116937c720517c95db6dba750000000000000000000000000000000000000000000000000000000000000000000000000000000000000000000000000000000000000000000000000000016000000000000000000000000000000000000000000000000000000000000000000000000000000000000000000000000000000000000000000000000000000000000000000000000000000000000000000000000000000000000000000000000000000000000000000000000000000000000000000000000000000000000000000000000000000000000000000000000000000000000000000000000000000000000000000000000000000000000000000000000000000000000000000000000000000000000000000000000000000000000000000000000000000000000001e0000000000000000000000000000000000000000000000000000000000000026000000000000000000000000000000000000000000000000000000000000000440d582f13000000000000000000000000c50d366ea5939d15504033d42a57278497d73e5f0000000000000000000000000000000000000000000000000000000000000001000000000000000000000000000000000000000000000000000000000000000000000000000000000000000000000000000000000000000000000041018fe619c352a9339bba757503435dfe3942cebe10d005ea89c90eb987238e497a292d805d5e43c06f3316ca5a246d75e46fb66fd0f63527a756e3785f5277031b00000000000000000000000000000000000000000000000000000000000000000000000000000000000000000000000000000000000000000000000000006000000000000000000000000000000000000000000000000000000000000000070000000000000000000000008717cd5a7250aed3473f92e97d933d2972c747fd0000000000000000000000000000000000000000000000000000000000000001",
          "blockHash": "0x0afc56cb9f1334329fdd39653804d484f79587117cc89f159e32c5440aba94ee",
          "blockNumber": "0x50b2f28",
          "blockTimestamp": "0x69c28e73",
          "transactionHash": "0xa54adb23949af8f2048f2a64469ed983e5e6abde0d8fba33f4cb1de5c88defc1",
          "transactionIndex": "0x136",
          "logIndex": "0x158f",
          "removed": false
        },
        {
          "address": "0x998679089cdc7a9a116937c720517c95db6dba75",
          "topics": [
            "0x9465fa0c962cc76958e6373a993326400c1c94f8be2fe3a952adfa7f60b2ea26"
          ],
          "data": "0x000000000000000000000000c50d366ea5939d15504033d42a57278497d73e5f",
          "blockHash": "0x0afc56cb9f1334329fdd39653804d484f79587117cc89f159e32c5440aba94ee",
          "blockNumber": "0x50b2f28",
          "blockTimestamp": "0x69c28e73",
          "transactionHash": "0xa54adb23949af8f2048f2a64469ed983e5e6abde0d8fba33f4cb1de5c88defc1",
          "transactionIndex": "0x136",
          "logIndex": "0x1590",
          "removed": false
        },
        {
          "address": "0x998679089cdc7a9a116937c720517c95db6dba75",
          "topics": [
            "0x442e715f626346e8c54381002da614f62bee8d27386535b2521ec8540898556e"
          ],
          "data": "0xab65ff552140474e09cad49ca6c8a05a6576223a3187de80fd1f05847973a9230000000000000000000000000000000000000000000000000000000000000000",
          "blockHash": "0x0afc56cb9f1334329fdd39653804d484f79587117cc89f159e32c5440aba94ee",
          "blockNumber": "0x50b2f28",
          "blockTimestamp": "0x69c28e73",
          "transactionHash": "0xa54adb23949af8f2048f2a64469ed983e5e6abde0d8fba33f4cb1de5c88defc1",
          "transactionIndex": "0x136",
          "logIndex": "0x1591",
          "removed": false
        },
        {
          "address": "0x0000000000000000000000000000000000001010",
          "topics": [
            "0x4dfe1bbbcf077ddc3e01291eea2d5c70c2b422b415d95645b9adcfd678cb1d63",
            "0x0000000000000000000000000000000000000000000000000000000000001010",
            "0x0000000000000000000000008717cd5a7250aed3473f92e97d933d2972c747fd",
            "0x0000000000000000000000007ee41d8a25641000661b1ef5e6ae8a00400466b0"
          ],
          "data": "0x000000000000000000000000000000000000000000000000001ae7d64d471a000000000000000000000000000000000000000000000000008f5b378a7987462100000000000000000000000000000000000000000007fe60a145732882234a760000000000000000000000000000000000000000000000008f404fb42c402c2100000000000000000000000000000000000000000007fe60a1605afecf6a6476",
          "blockHash": "0x0afc56cb9f1334329fdd39653804d484f79587117cc89f159e32c5440aba94ee",
          "blockNumber": "0x50b2f28",
          "blockTimestamp": "0x69c28e73",
          "transactionHash": "0xa54adb23949af8f2048f2a64469ed983e5e6abde0d8fba33f4cb1de5c88defc1",
          "transactionIndex": "0x136",
          "logIndex": "0x1592",
          "removed": false
        }
      ],
      "logsBloom": "0x00000000400000000000000000000000000000000000000000000000040000000000000000000000000000000040000000008000000000000000000000000000000000000000000000000000000000800000040000000000000100000000000000000000000000010000000000000000000000000000000080000000000000000000000000000000020000000400000000000000000000000000000000000000200000000400000000400000000004001000000000000000000000000000004000000000000000000001000000020000000000400000000000100000000040000000000000000000000000000000000000008800000000000008000000100400",
      "type": "0x2",
      "transactionHash": "0xa54adb23949af8f2048f2a64469ed983e5e6abde0d8fba33f4cb1de5c88defc1",
      "transactionIndex": "0x136",
      "blockHash": "0x0afc56cb9f1334329fdd39653804d484f79587117cc89f159e32c5440aba94ee",
      "blockNumber": "0x50b2f28",
      "gasUsed": "0x16d39",
      "effectiveGasPrice": "0x2c2d6aeaac",
      "from": "0x8717cd5a7250aed3473f92e97d933d2972c747fd",
      "to": "0x998679089cdc7a9a116937c720517c95db6dba75",
      "contractAddress": null
    }
  ],
  "libraries": [],
  "pending": [],
  "returns": {},
  "timestamp": 1774358133037,
  "chain": 137,
  "commit": null
}